:030296000108005C
:06022400D2B5C2B47F193F
:0E022A00AD071FED60087E021EEE60F480FA44
:0102380022A3
:09026100D2B6C2B7D2B5C2B42274
:09026A00C2B6D2B7C2B5D2B4226B
:09027300C2B6D2B7D2B5C2B42262
:09027C00D2B6C2B7C2B5D2B42259
:09028500D2B6D2B7D2B5D2B42230
:10023900D2B6C2B7120224D2B6D2B7D2B5D2B47FDF
:040249004B02022A38
:1001DA00C2B6D2B7C2B5D2B47F1912022AD2B6D2E7
:0A01EA00B7D2B5D2B47F4B02022A4F
:10024D00C2B6D2B7120224D2B6D2B7D2B5D2B47FCB
:04025D004B02022A24
:1001F400D2B6C2B7C2B5D2B47F1912022AD2B6D2CD
:0A020400B7D2B5D2B47F4B02022A34
:1000B20030A10930A00630A20312023920A1063075
:1000C200A2031201F420A20630A10312024D20A2C3
:1000D2000330A10920A04130A13E30A23B90000094
:1000E2001201DAA3E5826432458370F4E4F583F504
:1000F20082AF82AE83E4FCFD7B607AEAF9F8D31228
:10010200020E401412024D30A20630A10320A008B4
:08011200E508B40203A380D943
:01011A0022C2
:10017D0030A10930A00630A20312028520A106305D
:10018D00A20312024D20A20630A1031201F420A2F7
:10019D000330A10920A00930A10630A203120239B3
:0101AD00222F
:1001AE00120003E508B40106E508640160FAE508EB
:1001BE00B402091200B2E508640260F7E508B40360
:0C01CE00E212017DE508640360F780D7B1
:0300230002011BBC
:09011B00C0E0C0D075D000C0079F
:10012400C2AF30984BAF99C298EF24CA600C1460E8
:100134000E2402700D75080180087508028003758D
:100144000803E508B40129EF24CF601214601414E5
:1001540060161460182404701712028580121202AB
:1001640061800D12026A8008120273800312027CFD
:02017400D2AF08
:07017600D007D0D0D0E03229
:1000030053877F75985053890F438920758BFD75EE
:0D0013008DFDC2ABD28ED2AFD2ACC2BC22EA
:08028E008F993099FDC29922FD
:03000000020026D5
:0C002600787FE4F6D8FD75810802006DBB
:10020E00EB9FF5F0EA9E42F0E99D42F0EC6480C867
:06021E0064809845F02207
:100032000201AEE493A3F8E493A34003F68001F235
:1000420008DFF48029E493A3F85407240CC8C333CF
:10005200C4540F4420C8834004F456800146F6DF9E
:10006200E4800B0102040810204080900296E47E96
:10007200019360BCA3FF543F30E509541FFEE49393
:10008200A360010ECF54C025E060A840B8E493A35A
:10009200FAE493A3F8E493A3C8C582C8CAC583CA85
:1000A200F0A3C8C582C8CAC583CADFE9DEE780BE3D
:010299000064
:00000001FF
